:0A0000000C942A000C9400000C94EC
:10000A0000000C9400000C9400000C9400000C9466
:10001A0000000C9400000C9400000C9400000C9456
:10002A0000000C9400000C9400000C9400000C9446
:10003A0000000C9400000C9400000C9400000C9436
:10004A0000000C9400000C940000F894EE27ECBB1E
:10005A00F1E0FBBFEBBFE5BF8DE0A2E0BB27ED936C
:10006A008A95E9F780E098E0A0E6ED930197E9F731
:10007A00EFE5EDBFE8E0EEBFC0E6D2E00C94450044
:10008A00EFEFEABBE0E0EBBBEFEFE7BBE0E0E8BB9A
:10009A00EFEFE1BBE0E0E2BBEFE7E4BBE0E0E5BBAA
:1000AA00E2E0F0E02F01E5E0F0E03F01C7D0E2E353
:1000BA00F0E06F01C09A929AE0E0E0936002E1E01A
:1000CA00E0936102E2E0E0936202E3E0E09363021C
:1000DA00E4E0E0936402E5E0E0936502E6E0E093A1
:1000EA006602E7E0E0936702E8E0E0936802E9E08D
:1000FA00E09369020C2C0D2839F1A0E6B2E0A40DB8
:10010A00B51DEC91EBBBA89AA0D0A898A2D0A60DD9
:10011A00B71DEC91EBBBA99A98D0A9989AD0A80DD3
:10012A00B91DEC91EBBBAA9A90D0AA9892D0AA0DCD
:10013A00BB1DEC91EBBBAB9A88D0AB98E0E0EBBB74
:10014A00F60131976F01D6CFE2E3F0E06F0103D0F9
:10015A003DD0D0CFFFCF00240414050431F400248D
:10016A000614070411F4B09901C007C0C19AC098D7
:10017A00C298A8EBBBE00E943301F30131973F011B
:10018A000024601470040CF5F20131972F01002449
:10019A004014500414F4B19901C008C0C29AC1981D
:1001AA00E2E0F0E02F01E8E0F0E00EC000244014A5
:1001BA00500444F4E2E0F0E02F0166247724C29868
:1001CA00C09A03C0E9E0F0E03F0108950024081452
:1001DA00090431F400240A140B0411F4809901C0B3
:1001EA0007C0919A90989298A8EBBBE00E943301BD
:1001FA00F50131975F010024A014B004F4F4F4016E
:10020A0031974F0100248014900414F4819901C09D
:10021A0004C014D09198929A10C0002480149004BB
:10022A004CF4E2E0F0E04F01E5E0F0E05F01929883
:10023A00909A03C0E9E0F0E05F010895E2E0F0E09F
:10024A004F01E8E0F0E05F010895A5E0B0E00C940A
:10025A003301E0E0EBBBA0E6B2E00895109639F076
:10026A008AEF90E00197F1F7A8951197C9F70895D9
:00000001FF
